:020000040800F2
:2000000000000120A12C05083D2D0508B9960108119501083D2D05083D2D05080000000079
:200020000000000000000000000000003D2D05083D2D0508000000003D2D05086588010865
:200040003D2D05083D2D05083D2D05083D2D05083D2D05083D2D0508BDA00008C5A0000804
:20006000CDA00008D5A00008DDA00008C99E0008DD9E0008F19E0008059F0008199F000814
:200080002D9F0008419F00083D2D05083D2D05083D2D05083D2D05083D2D0508E5A00008C4
:2000A00071C800085DC7000881C800084DC7000885C7000895C70008A5C70008D9990008C0
:2000C000CD9900080D9A0008019A00083D2D05083D2D0508B1870108BD870108C98701088B
:2000E000EDA000083D2D05083D2D050891C8000849C800083D2D050839C80008559F000887
:200100003D2D05083D2D0508B5C700083D2D0508D5870108E1870108C5C7000821A80408B7
:20012000699F00087D9F0008919F0008A59F0008B99F0008000000000000000000000000A7
:20014000000000000000000000000000A59D0408CD9F0008E19F0008F59F0008ED8701083C
:20016000419A0008359A00083D2D05083D2D05083D2D05083D2D05080000000000000000E9
:200180003D2D05083D2D05083D2D05083D2D05083D2D05083D2D0508000000003D2D05081E
:2001A0000000000000000000000000003D2D05083D2D05083D2D05080000000000000000DA
:2001C000000000000000000000000000000000000000000000000000000000003D2D0508A8
:2001E000FFFFFFFFFFFFFFFFFFFFFFFFFFFFFFFFFFFFFFFFFFFFFFFFFFFFFFFFFFFFFFFF1F
:20020000FFFFFFFFFFFFFFFFFFFFFFFFFFFFFFFFFFFFFFFFFFFFFFFFFFFFFFFFFFFFFFFFFE
:20022000FFFFFFFFFFFFFFFFFFFFFFFFFFFFFFFFFFFFFFFFFFFFFFFFFFFFFFFFFFFFFFFFDE
:20024000FFFFFFFFFFFFFFFFFFFFFFFFFFFFFFFFFFFFFFFFFFFFFFFFFFFFFFFFFFFFFFFFBE
:20400000B1BE0A00FA0100003D0300000E000500030000000000020100000A0013020000B4
:20402000000001001C001F020000FFFFFFFFFFFFFFFFFFFFFFFFFFFFFFFFFFFFFFFFFFFF58
:204040002E0006000200E0010700000200001F1A191839382B2A00020000010203040506F9
:20406000070026022E04D007E803A8070E004500160200001F01001A010019010018010095
:204080003902003802002B01002A0100210200000000000000000000000000000000000031
:2040A000000000000000000000000000000000000000007600150000000000000000000075
:2040C0000000000000000000000000000000000000000000000000000000000000000000E0
:2040E0000000000000000000000000000000000000000000000000000000000000000000C0
:2041000000000000000000000000000000000000000000000000000000000000000000009F
:2041200000000000000000000066002A00000000000000E803D007DC0564FF00000000E801
:2041400003D007DC0564FF00000000E803D007DC0564FF00000000E803D007DC0564FF0035
:20416000000000E803D007DC0564FF00000000E803D007DC0564FF00000000E803D007DC95
:204180000564FF00000000E803D007DC0564FFF600210200000000800010008000200080E8
:2041A0000030008000400080005000800000000000000000000000000000000000000000BF
:2041C0000000000000000000000000000000000000000000000000000000000000000000DF
:2041E0000000000000000000000000000000000000000000000000000000000000000000BF
:20420000000000000000000000000000000000000000000000000000000000FFFF000000A0
:20422000FF1E0000FF3C0000FF5A0000FF780000FF960000FFB40000FFD20000FFF000004E
:20424000FF0E0100FF2C0100FF4A0100FF0000000000000000010B020D0A03050B030D0A89
:20426000030A0B040D0A03080B040D0A03070B030D0A03000000000000060A010000020392
:20428000060000000316002C000000E803D007E803D007E803D007E803D007320125000271
:2042A0000000000000000000000000000000000000000000000000000000000000000000FE
:2042C0000000000000000000000000000000000000000000000000000000000000000000DE
:2042E0000000000000000000000000000000000000000000000000000000000000000000BE
:2043000000000000000000000000000000000000000000000000000000000000000000009D
:2043200000000000000000000000000000000000000000000000000000000000000000007D
:2043400000000000000000000000000000000000000000000000000000000000000000005D
:2043600000000000000000000000000000000000000000000000000000000000000000003D
:2043800000000000000000000000000000000000000000000000000000000000000000001D
:2043A0000000000000000000000000000000000000000000000000000000000000000000FD
:2043C000000000000000000000000000002A002B000000001E001E001E0005011E011E01EA
:2043E0001E011E011E011E011E011E011E011E011E011E011E011E0E0016000300C4090056
:2044000000B40200000A0027000000200300007E000C000600320003070707000000434332
:20442000430064CE07CE07CE07000000000000000000003200030707070000004343430043
:2044400064CE07CE07CE07000000000000000000003200030707070000004343430064CE34
:2044600007CE07CE07000000000000000000003200030707070000004343430064CE07CE71
:2044800007CE0700000000000000000000100003010100000000000000000000007E002984
:2044A0000002000000203000000101002000000B022030000000000000000000000000002B
:2044C0000000000000000000000000000000000000000000000000000000000000000000DC
:2044E0000000000000000000000000000000000000000000000000000000000000000000BC
:20450000000000000000000000000000000000000000000000000000000000120001000286
:2045200000E80364000F0A000105001E00160023000200190000000100FCFF060001000098
:204540000000001C00280004000000010100000000000000000000000000000000000020F1
:20456000000B000300AE014A015E012C0164010100000001000A019A01001E0A00000296DA
:20458000020E00080064004B00000000002D50280078002F542E007D002D500000780032E2
:2045A0004B4B0032002800000000000055F4019001013C8700500000000000320090015EFB
:2045C00001F40100000A64C8009001960000050F00010F0114004B3200005A140B00004B0E
:2045E000009600001400280100C8001E2200251464000000000000000000000000323232AD
:204600009632000019070F5A0500000264646464646464016464056401410046055064F41F
:204620000114001A0400190F3264004B00000000002D50280078002F542E007D002D500076
:20464000007800324B4B0032002800000000000055F4019001013C8700500000000000329F
:204660000090015E01F40100000A64C8009001960000050F00010F0114004B3200005A14D4
:204680000B00004B009600001400280100C8001E220025146400000000000000000000004C
:2046A000003232329632000019070F5A050000026464646464646401646405640141004696
:2046C000055064F40114001A0400190F3264004B00000000002D50280078002F542E007DA6
:2046E000002D5000007800324B4B0032002800000000000055F4019001013C8700500000B4
:20470000000000320090015E01F40100000A64C8009001960000050F00010F0114004B326F
:2047200000005A140B00004B009600001400280100C8001E2200251464000000000000003D
:2047400000000000003232329632000019070F5A050000026464646464646401646405647D
:2047600001410046055064F40114001A0400190F3264004B00000000002D50280078002F7C
:20478000542E007D002D5000007800324B4B0032002800000000000055F4019001013C8764
:2047A00000500000000000320090015E01F40100000A64C8009001960000050F00010F0110
:2047C00014004B3200005A140B00004B009600001400280100C8001E22002514640000000C
:2047E0000000000000000000003232329632000019070F5A0500000264646464646464010E
:204800006464056401410046055064F40114001A0400190F3253001E000400010501000128
:20482000070A00000000000000000000000000000000000000000000000000000000000067
:20484000000000000000000000000000000000000000000000000000000000000000000058
:20486000000000000000000076000D0001000100000014050405000000000000000000058C
:204880000405000000004000000001050405000000000000000002050405000000000000B0
:2048A0000000030504050000000000040000040504050000000000000000050504050000BE
:2048C0000000000000001E05020200000000000000001F05020200000000640052002201B0
:2048E000220200000000000000000000000000000000000000000000000000000000000094
:20490000000000000000000000000000000000000000000000000000000000000000000097
:20492000000000000000000000000000000000000000000000000000000000000000000077
:20494000000000000000000000000000000000000000000000000000000000000000000057
:2049600000000000000042414E44312020200042414E44322020200042414E443320202042
:204980000042414E44342020200042414E44352020200042414E44362020200042414E4404
:2049A000372020200042414E44382020200031323334353637383100320033003400350010
:2049C000360037003800000000000000000000000000000000000000000000000000000032
:2049E0004C5630004C5631004C5632004C5633004C5634004C5635004C5636004C5637000B
:204A00003E0018000400000103020405060709000000000001006400DC051A046C07001927
:204A2000750343080E000001000000001E1E1E7D01010000000000000000000000001600B5
:204A40001B02000006000000E803000000000000000000000A0028020000000000000A000A
:204A6000270200000000000022001C0200000002011400000002000000008403010000002C
:204A8000000000000000000000001000000201000000000000000102030042001A0200009F
:204AA0000000000000000000000000000000000000000000000000000000000000000000F6
:204AC0004746554E0047455446554E46373232563300000000000000000001000A002E0238
:204AE00000000000000086000400000000000000000000000000000000000000000000002C
:204B0000000000000000000000000000000000000000000000000000000000000000000095
:204B2000000000000000000000000000000000000000000000000000000000000000000075
:204B4000000000000000000000000000000000000000000000000000000000000000000055
:204B60000000000000000000000000001A0008020100151617FFFF2D2E2FFFFF232425FFDD
:204B8000FF000000FFFF2A000A00090030000000FA00F401000000000000000000000200BA
:204BA00000029E077D00FA00F401000105016400430003020100000000000000000000002E
:204BC0000000000000000000000000000000000000000000000000000000000000000000D5
:204BE00000000000000000000000000000000000000001100001020000000000000200009F
:204C00000000000A000C020000012C0200A600FD070100550163093801B900390155015509
:204C20000133092E087309550122095501550155015501550155015501550155016839431A
:204C40000955015501550155015501550155015501550155015501550143085501550155F7
:204C60000155015209550155015501550155012308550155015501550155015501550155FA
:204C800001550155018E005501550138015501550155015501550155015501550155015599
:204CA000015501550155015501550155015501550155010A0013000100280455187A00F5C7
:204CC000010C00980864001401000A010A0000FF1F0400142800002C3700000000FFFFFFDB
:204CE000FF460001020000000000000000000000000000000000000000000000000000006C
:204D0000000000000000000000000000000000000000000000000000005000C4FF0400007C
:204D2000FFFFFFFF0100000005180B0C0000000001C800411E0D0009000202000000000000
:204D40001200F60102000000000005000000000000000A00120201002829FFFF0E001102B4
:204D600000003422000081810101160034000000DC05320000000000000000000000010477
:204D80000C00F80103000101F40114001200020001000000000000000000000000001A00D1
:204DA000FE01000001300032013100330300000000000000FFFF00001E00060201002829B3
:204DC000000020030000000020030000000020030000000000000C00F70100002001000045
:204DE000000014001A0000007E05EA05B4053200E803D00700000B00140001000300002320
:204E0000002700FD01000026123A103C36000000000027133B11423700000000000000007A
:204E200000000000000000000C001D0200000000000000000A00F90100003F3E00001600B0
:204E400012000300000006010000055337583200000001001200200206000364646464004F
:204E60003200F401960008000E020000000028002F0002004637323220563300000000007A
:204E8000000000000000000000000000000000000000000000002A001F00050000000000C4
:204EA00000010001000500000102030000000000000000000000000000000000008017004E
:204EC0000C003800040000642C0164002E00370005002D001E001400EE020F0F14144C0446
:204EE000A406FB040808280C0F00020001040000EE0296000A0096144B0A16001B000300EC
:204F0000002100020301F401320001640000780008001000010000050A000101000000003C
:204F200000000A0000010000640000000900020100006E0A0146002902000000000000000C
:204F4000000000000000000000000000000000000000000000000000000000000000000051
:204F60000000000000000000000000000000000000000000000000000000000E00260003FA
:204F80000001000001000000000E002A020100640058022C0103000B00190000000000289A
:204FA00001001A0023020300000000000000000000000000FF0000000000000007000300A5
:204FC0000000000A0005020000000000000C002C020100190019000A0007002D0200000013
:204FE0000700090200000007001002000000000011160000FFFFFFFFFFFFFFFFFFFFFFFF6B
:20500000FFFFFFFFFFFFFFFFFFFFFFFFFFFFFFFFFFFFFFFFFFFFFFFFFFFFFFFFFFFFFFFFB0
:20502000FFFFFFFFFFFFFFFFFFFFFFFFFFFFFFFFFFFFFFFFFFFFFFFFFFFFFFFFFFFFFFFF90
:20504000FFFFFFFFFFFFFFFFFFFFFFFFFFFFFFFFFFFFFFFFFFFFFFFFFFFFFFFFFFFFFFFF70
:20506000FFFFFFFFFFFFFFFFFFFFFFFFFFFFFFFFFFFFFFFFFFFFFFFFFFFFFFFFFFFFFFFF50
:20800000084A0346D0F8E4005268D3F8F010121A00209142B8BFC3F8F020012283F81C2158
:20802000704700BF001000E01B4B1C4A03F5727C016803E063452BD053F82C2F9142F9D1F6
:2080400070B593F804E0427996450AD0634505D053F82C2F9142F4D06345F9D14FF0FF3082
:2080600070BD9E4684680022DEF80C50A54208D001320EF10C0E032AE8D0DEF80C50A542A6
:20808000F6D1DEF81050C668B542F1D150B270BD4FF0FF30704700BFC8470508000001408C
:2080A0004368426D30B49A61EFF31182502383F312884168D2B2856C0B68046D23EA050378
:2080C00023430B6082F31188436981681A68096822F00102D0E908541A60826A1D605C616F
:2080E0005A60D0E90B429C60DA600023B0F86C2030BCCA620377704730B5FAB18E464FEA4D
:20810000014C034600F1C005002419680C3353F8042C43F8084C41EA0C0142EA0E02AB42C4
:2081200043F80C1C43F8042CEFD1D0F8C03043EA0E03C0E93144C0F8C03030BD4FEA014E80
:208140008C46DEE783695969B3F810C00A6830B49C6822F0010224680A60E26822EA0C0296
:20816000E260027D04681F2A06D9203A082065689040284242D0FEE708202568904028423B
:20818000F9D1202000FA02F2A260254A1278002A32D01A7F012A36D0D3F800210132C3F81C
:2081A0000021EFF31181502282F312885868C9B29D6C0268DC6C22EA05022243026081F365
:2081C00011885A699968D3E90D40096814605061D3E90F40546090605C6CB3F8B400D46099
:2081E0000124C8621068204310601A8A1C7783F8FD40CB681343CB6030BC7047202000FA65
:2082000002F2E260C1E70022D3F8040183F8FD2001300A68C3F8040122F001020A60EBE742
:20822000E001002010B40C4C6368002B11DD002004F1080C0146DCF8AC3003F1C0025960AE
:208240000C339342FBD1013063680CF5867C8342F1DC5DF8044B7047E0010020704700BFDB
:20826000024B03EB401090F855047047E0010020704700BF0B4890F86C1589B101EB4101A0
:20828000002300F27450490010B41C4650F82320063302B114608B42F8D15DF8044B7047BA
:2082A000704700BFE00100200B4890F86C1589B101EB4101002300F27450490010B41C463B
:2082C00050F82320063302B114609942F8D15DF8044B7047704700BFE00100200120704765
:2082E000034B00EB400003EBC00090F885057047E0010020204890F86C35002B3AD00022A5
:2083000000F274534FF02C0C2DE9F0434FF0500E1A4E1B4D144607E053F8181B01320C6019
:2083200090F86C15914223DD197C0029F4D05F684FF0FE08B90AA1F580115229294498BFAA
:2083400091F8F483EFF311818EF31288D7F824900CFB0868C9B209F10109C8F82890D7F8CE
:20836000148048F00108C7F8148081F31188D3E7BDE8F083704700BFE001002098180120AE
:20838000C847050807EE900AB8EE670A704700BFBCEEC00A10EE103A98B27047034601227C
:2083A00000205A77704700BF08B5D0E90B2183690B4483610AB108469047002008BD00BF11
:2083C000436A02461B681B6A5B685B7813F0010008BF5077704700BFC2628161704700BF86
:2083E000704700BF043070470C4B93F89822D3F8941202440844D2B2C3F8940283F8982273
:2084000093F89822120605D593F8982282F0800283F89822024B01221A7070479818012035
:20842000000001202DE9F84F154FD7F89C52ED0A20D00026DFF84CA007F52879B046AC1975
:20844000D7F8A012102352466410D1F828B04846C7F8CC82E102D8470F280BDD094B03F1B7
:20846000100253F8041B013107D19342F9D12546B542E4DCE802BDE8F88F661CF8E700BF7F
:208480009818012000000020184BD3F8D412D3F8D8228A1A322A15D8D3F8EC228A4200D3AD
:2084A0007047D3F8DC22E2B110683231928810B44469C3F8EC1222425DF8044B18BF120495
:2084C00082617047D3F8DC223AB193F8E8021168C007928848BF12048A610022C3F8EC228C
:2084E00070473231C3F8EC12704700BF98180120064AD2F8DC323BB192F8E8121A68C90778
:208500009B8848BF1B0493610020704798180120044B4FF4007C0020D3F8F832A2F800C0F9
:208520000B6070479818012000207047012070470120704700207047134BD0F8D8105B6819
:20854000D0F8E02010B50446581A824200DC22B9D4F8E4200A44C4F8DC2094F8D020C4F849
:20856000D830012A05D0D4F8D4300133C4F8D43010BD04F1E801201D0FF012F9D4F8D4306D
:208580000133C4F8D43010BD001000E0CB070AD490F82830012B08D0C368B3F1807F03D9EC
:2085A000012303777047704770471B4AD2E9CA1310B5B1EB930F8CB04FEA9302446A4FF001
:2085C000020306D252085B0091429BB201D2FF2BF8D9C268A380B2F1807F1BD901220023F2
:2085E00001A94FF0B70C0277204604928DF814208DF828208DF804C00B93CDE9021302A977
:20860000CDE90633CDE908330FF0CAF82268136A002BFCD10CB010BD9818012030B590F8F3
:2086200028308BB00446012B05D0407F48B1002363770BB030BD456A2B681A7B22BB637F69
:2086400013B901200BB030BD12490220002301220290081F8DF80C208DF820200993CDE941
:20866000001069462846CDE90433CDE906330FF097F82A68136A002BFCD1074B5B7C03F040
:20868000010383F00100D3E71B6A002BD7D00020CFE700BF14000020000000202DE9F04121
:2086A0001F4F8AB0044690F82820A7F10408A7F11406437F012A06D00BB100236377012005
:2086C0000AB0BDE8F081656A2A68117B09BB002BF5D00023694628460993CDE90433CDE9AA
:2086E000063301238DF80C308DF820300223CDE9007802930FF054F82A68136A002BFCD14D
:20870000737C03F001036377002BD8D094F82820D0E7126A002AD7D1002BD0D0D9E700BFA3
:2087200014000020244A002330B5044695B0101D224D0693019002200B931093139311938D
:208740000290207F009200280495CDE90E334FF001038DF80C3007938DF820308DF8343042
:208760008DF8483002F10803A2F10802059314BF052304230A920C93114B0993636A1A6825
:20878000136A002BFCD1A0B10E480A0E00F11A0342760A0A9970080C69465A701870606AE3
:2087A0000EF0FEFF636A1A68136A002BFCD115B030BD054BEDE700BF20000020C1830008D9
:2087C0009D830008000000201900002010B594B004465022074968464BF0B4FD6946606AF0
:2087E0000EF0DEFF636A1A68136A002BFCD114B010BD00BF104C0508F8B50546406A006817
:20880000046A002CFCD1287F002839D0A8690527254E4FEA106C254C2E3606F801CC67634A
:20882000B0704FEA104C000A012B86F800C070704FF000000E6826641668A6642E63A065D2
:2088400024D0022B1BD15368012220651E444968E365174B84F84C0061652E6384F86020D0
:208860006366144B697F03F11402686A002914BF194611460EF094FFEB6A73B1286BF8BD08
:2088800004200A4C0C4E6063A869C9E7084A84F84C306065E0652265E3E76B6A1A68136A07
:2088A000002BFCD1EAE700BF0000002000000120A9830008040001202D00002000B583B061
:2088C0008161019201A9049A00930123C2626A46FFF792FF03B05DF804FB00BF70B51D467B
:2088E000436A94B006461B681C6A002CFCD13A4B02204FF0010C0694029003F13C008DF865
:208900000CC0009003F1400001903448049003F134000590307F00284BD00B920A0E363359
:208920008DF8204003F8012C05220C958DF834C08DF848C013940792CDE90944CDE90E4411
:20894000CDE910440A0C9970254C090A1A705970706AD4E9CA32B3EB920F4FEA92014FF03A
:20896000020206D2490852008B4292B201D2FF2AF8D9737F8280D3B905A90EF011FF706A84
:2089800003681A6A002AFCD10222D4E9CB34B4EB930F4FEA930106D2490852008C4292B276
:2089A00001D2FF2AF8D98280284614B070BD6946E3E70B92042235338DF820000C958DF81A
:2089C00034C08DF848C013900792CDE90900CDE90E00CDE91000B5E700000020C183000889
:2089E000981801200C4AF8B5136855692B4003EA000555617DB1094F0126B5FA85F4C4F1CD
:208A00001F0407EB840306FA04F4D3F8340303689847A543F1D1F8BD003C014098180120C9
:208A20000269C3682DE9F04712EA03092AD005460E464FF000474FF00008B9FA89F327FA95
:208A400003F21B3BD24309EA02092A61042B16D8DFE803F03B30251A0300B36A002B3FD052
:208A600003F1FF3AC6F828801FFA8AFA746A34B123682046514698476468002CF8D1B9F131
:208A8000000FDAD1BDE8F08770680028F7D0696B036889B29847B9F1000FCED1F2E7B06897
:208AA0000028ECD0A96B036889B29847B9F1000FC3D1E7E7F0680028E1D0E96B036889B2F3
:208AC0009847B9F1000FB8D1DCE730690028D6D0296C036889B29847B9F1000FADD1D1E742
:208AE000E96A1FFA81FAC1E78369F0B593F8DC208BB00546012A27D0023A012A2FD893F82E
:208B00004C21EC46D3F89C1062F07F03154C0B708669D6F8A0305F1C0FCCACE80F00D6F83B
:208B20009C30CDE900370FCCACE80F0094E803008CE80300694606F110000EF031FEAB6911
:208B400019690A6A002AFCD1D3F8A0305A8852BAEA819A8852BA2A82DB885BBA6B820120D4
:208B60000BB0F0BD604C0508F0B590F8DC308BB00446D0F8A060012B4BD015D8D0F89C3086
:208B80004FF0FF3205211A605A609A60DA60D0F8E030C0F8F010B3F57A7F54D8032380F8DC
:208BA000DC3001200BB0F0BD023B012BF9D890F84D31EC46D0F89C2063F07F03384D13704D
:208BC000D0F8A0305F1C0FCDACE80F00D4F89C30CDE900370FCDACE80F0095E803008CE80B
:208BE0000300694604F110000EF0DAFD2269136A002BFCD1738801205BBAA4F8D030B388E1
:208C00005BBAA4F8D230F3885BBAA4F8D4300BB0F0BD90F84C2190F84D319B1A5B100133BA
:208C2000DBB236F8132006EB430653BAA0F8D03073885BBAA0F8D230B3885BBAA0F8D430D1
:208C400001200BB0F0BD03691A7B2AB35B691BB390F8983003B390F84C310122D0F89C0089
:208C600063F07F03C4F8A4400E49037094F84D3194F84C0184F800211B1A84F8DC20D4F8BC
:208C8000A0200733C4F804110132D4F89C10C4E93E23C4F8F41084E7022384F8DC3080E711
:208CA000604C0508018000082DE9F041304F07EB401898F854340BB9BDE8F08100EB800302
:208CC0000E460021044607EB4313450193F8362683F8361688F83A244BF032FDB8BB3D445D
:208CE0002448A5F8386400EB44104BF061FD3B78D5F85024A3B1D5F83C140124D2F8AC30C7
:208D00008C4003F1C001420010F4004F90B202D15A6822435A600C339942F4D1BDE8F08152
:208D2000D5F83C140124D2F8AC3001F1100203F1C0019440420010F4004F90B202D15A6852
:208D400022435A600C339942F4D1BDE8F0810A4B93F8EC2302EB420203EBC203234493F83A
:208D60009963002EBBD0012388F83A34B7E700BFE001002018060020981801202DE9F84F62
:208D8000374D2B7813B90120BDE8F88F354F05F5876A05F634360024D7F8D4B24FF6FE798A
:208DA0004FF6FF7815E0B0F5606F4AD0B081B0EB08012D4B4FF05C005A4618BF012100FBF8
:208DC00004300EF003FB01340AF1200A1436082C31D0D5F81C2FA2422DDDDAF81800DAF8C8
:208DE0000420D0E93D014BF0D3FC484597F8752314D0542A04D1B7F878230132A7F87823AC
:208E0000D5F83C2B404502F10102C5F83C2BCAD1D5F8382B0132C5F8382BC8E7542AD2D191
:208E2000B7F87A2301340AF1200A14360132082CA7F87A23CDD10123012085F8383CBDE826
:208E4000F88F97F8EC2302EB420207EBC202224492F899230D2AA9D18022B277A7E700BF91
:208E6000E0010020981801201C0E00202DE9F8430FF04EFE2F4E4FF0000C0746DFF8BC8012
:208E80002D4C716800294ADD00234FF486701D4600FB0362013392F80521994245EA02051C
:208EA000F6D145EA0C0C5FFA8CF9D8F80430C3F308038BBBEFF3118373BB4FF0E02CD4F800
:208EC000D432DCF81810D4F8D4229342F7D1D4F8F0239142F3D8D4F8F4C34FF47A7202FB05
:208EE0000CF0401AB0FBFCF002FB0300C31BB3F5FA6FCCBF4FF0000C05F0010CBCF1000F02
:208F0000BFD1B9F1000F04D00B4B93F87523542A08D04846BDE8F8830FF0CAFCE6E7E146FE
:208F20000025C2E7B3F87C2348460132A3F87C23BDE8F883E00100209818012000ED00E05F
:208F400010B504464AF086FC0146204689B2BDE81040A9E638B50B4D00EB400005F27453AC
:208F6000C40003EBC0032C4493ED027AD3ED037AE7EE007AB0EE670A4AF06CFCD4F874355E
:208F8000186038BDE00100202DE9F0414BF0E8FB80B31B4F7D68002D12DD3846002410F8B6
:208FA000086BA046013416B1037F012B1DD04269AC4200F58670136843F001031360F1D156
:208FC0000FF0A6FDD7F8204F002C0CDD0D4B03EBC4041968083333F8042CC8689C4242EA3D
:208FE0000002CA60F5D1BDE8F08180F8FC80FFF757F8DCE744F086FC0028CAD1BDE8F081DE
:20900000E001002004110020836910B51A4C04EB8303D3F81C043EF0B7FAB4F83C340C2B71
:209020000ED8DFE803F0070D0D0D220D0D0D1B0D0D0D1400D4F8FC23D36823F40073D360E0
:209040000122002384F8392484F83E3410BDD4F8FC23D36823F48053D360F1E7D4F8FC2330
:20906000D36823F40063D360EAE7D4F8FC23D36823F48063D360E3E79818012080699C3094
:209080003EF082BA830AA3F58013522B52D8F0B504466A4885B0034493F8F4030D2847D814
:2090A000674D860105EB8013D3F84074A7423FD00139C3F8404489B2C3F84C14D5F82C13A0
:2090C000B1FBF2F2013AC3F844240022C3F85024C3F84824C3F8542493F87D2402F0FF01D9
:2090E0004AB358490223AF1901EB8011204687F87D3404313EF0B2FF012387F87D34524BCD
:209100009C421BD0B4F1804F18D0A3F57C439C4275D003F580639C4271D04C4A03F57C4369
:209120009C4218BF944249D003F570539C4245D005B0F0BD704783F87C14D2E700234FF49A
:209140008051AA19CDE9001392F87C140129CDE90233EDD00221D2F84004012482F87D1465
:209160003B4987683940816082F87D4482F87C340023AA19CDE90033029392F87C34012BF3
:20918000D6D0D2F8403402212F4882F87D1483425A6899684ED000F5806083424AD022F0DA
:2091A000700221F08001354401205A609960002385F87D0485F87C3405B0F0BD00214FF44A
:2091C0008053CDE90031AB1993F87C24012ACDE90211ADD0D3F84004022283F87D241C4AC0
:2091E00087683A4082601B4A83F87C140121944283F87D14BCD0154B9C4299D1B8E70022BB
:209200004FF48051AB19CDE9001293F87C140129CDE902228CD00221D3F84004012483F861
:209220007D140B4987683940816083F87D4483F87C249DE722F47002B1E700BFC84705082A
:2092400098180120D81C012000000140000C00408800FEFF000401402DE9F843DDF820800B
:209260000F4616460021202204461D464BF0DEF8B8F1000F0CD0D8F80030B8F80A20E3814A
:209280001B0C2382D8F804306282E3821B0C2383384648F005FEF30619D4431EB8B107EB8D
:2092A000000C01E0013B12D31CF801EDBEF12E0FF8D1C01A03F10109421EB944032AA8BF20
:2092C0000322082BA8BF082390461A4606E008280246B9464FF00008A8BF08224FF02033A7
:2092E00039462046236063604BF02CF804F108031748424649462081A07218464BF022F808
:2093000004F1FF3C0346E21D1CF8011FA1F1610E2039BEF1190F98BF8CF800106245F3D11A
:20932000184604F10B0110F8013BA3F16102203B192A98BF00F8013C8842F4D118236583B7
:209340002D0CE6722373099BA582E361BDE8F883202020002DE9F04FDFF88C9487B0D9F803
:20936000D402C9F8D802002B00F0DA801344154601F1200601F5FE77DFF870A403931FE052
:20938000002D63D0D9F80423AA4200F0CD80D9F80023AA4200F00281D9E9C221AA424CD844
:2093A000A94200F2CF81691A184643F043FB0135039B06F5007607F500779D4200F0B08077
:2093C000D9F81043A6F12003AC42D9D82C1BD9F82083E208D8F8301004F0070402328A425C
:2093E00003D3D8F838108A420DD9414610460593049243F0EFFA8046DDE90423002800F0DB
:20940000C181C9F8200398F80410002940F03F81D8F828B0BBF1000F00F0AD811846D8F8BA
:2094200030304FF40071D21AD8F80C3004EBC20203EB42224346D847B9E7A942B3D91846FE
:209440004FF4007200214AF0F1FFB0E74FF40072294618464AF0EAFF80220346D94886F846
:209460009E210C2286F8A221D9F80013D9F8F8228142C3F8C611C3F8CA2100F36881D24BFB
:20948000013AD24C83FB0103C81784FB01C40B44C0EB6313C0EB2430CD4C84FB03C4C3EB52
:2094A000831C86F8A1018010A1EB0C011C4420F03F000131014386F8A011D917C1EBE411DF
:2094C0000B4486F89F31BF4B9A4200F34C81BE4BBE4883FB0213D11780FB02401344C1EBFF
:2094E0006313C1EB2031BA4880FB0340C3EB831486F8A5118910121B184421F03F0101321A
:209500000A4386F8A421DA17C2EBE010034486F8A331552386F8DE31AA2386F8DF3146E707
:20952000002007B0BDE8F08F4FF0FF320024A6F11C00049383F8EC21214683F8ED2183F85F
:20954000EE2183F8EF2152221A705A7061229A7083F8E7214122DA7083F8E621722283F85B
:20956000E42183F8E521D9F81823C3F8E8214FF4F0724AF05BFF049B5522C6F8D041C6F8B9
:20958000D441C6F8D84183F8FE216FF0550283F8FC4183F8FD4183F8FF2108E78D4C00219A
:2095A0004FF4007218464AF041FF03464FF0000C022203CC46F8191CEB2146F81D0C082089
:2095C00006F8201C582106F81F1C902106F81E1CF8211A7383F80BC006F8130C9A7383F825
:2095E0000FC006F8102C06F80B1C83F82C20D9F80013D9F8F82283F819C0521A83F81BC091
:2096000083F81DC01A6283F81EC083F81FC083F82DC083F82EC083F82FC0D9E9C212521A86
:2096200080215A623F221A764FF0FF329A763E221A77012283F8302083F831C086F8201063
:209640002921654B86F82210942186F8260086F823100E21614A86F824100D2186F82510E9
:20966000552186F8DE11AA2186F8DF1103CBC6F82B101988C6F827009B78A6F82F1086F813
:20968000313003CAC6F83200C6F836108FE64FF40072184600214AF0C9FED8F84020034685
:2096A000002C76D1002A00F0A380D8F8303011224B49CDE90044FFF7CFFDD8F840301A6C81
:2096C000002A00F0A1801B6BCDE900441122454930464FF4E07BFFF7BFFD06F12003D8F85E
:2096E0004480B8F1000F3FF462AE03F120049B44049523464446984610E05CF81C1B0025AA
:20970000236BCDE900C5FFF7A7FDABEB0803A46C08F12008002C18BF1F2B51D92379A446D7
:2097200004F11C0E1122A8F12000002BE5D162792569236B42F021022168CDE900E5FFF7D7
:209740008BFDE2E7A91A184643F074F92FE6FF23013A86F89F3186F8A13186F8A031194B34
:209760009A427FF7B4AEFF2386F8A33186F8A53186F8A431CDE6594618464FF400724AF07B
:2097800055FE14E6A6F1240343F804AF9F42FBD10DE6002AD8F844800CBF01220222C2EBB3
:2097A0000414B8F1000F3FF402AE4246013C926C002C01DD002AF9D190464FF4007B90E72A
:2097C000049DF4E5FF03FB0083200882975545418180808050C905085CC9050868C90508DC
:2097E00048C905084CC9050898180120DEADBEEF23460822D9F8FC124FF4F07BCDE9004406
:20980000FFF72AFD33466AE72346CDE900445DE738B5044690F8210100B938BD0EF022FE0D
:209820002146054698B126220C4BC28041F80C3F44F0B6FAAB884FF00042B3FA83F332FAE1
:2098400003F3EAD006490A6813430B6038BD034B41F80C3FBDE8384044F0A2BA398500089C
:20986000003C014058B183884FF00042B3FA83F332FA03F303D002490A6813430B60704789
:20988000003C014030B490F8443000F10801484A012BC2F800186ED083684649DC68464D52
:2098A00024F46004AB42DC60DC6844F46004DC609C6B24F440149C639C6B44F480149C63A3
:2098C0009C6B24F4F8449C639C6B44F488449C639C6824F470249C609C689C609C6824F45C
:2098E00040149C609C689C605C6824F480645C605C6824F480545C605C6901EA04015961C1
:209900005969596147D0DC682A4924F0E064DC60DC6844F0E064DC609C6B24F440149C63FF
:209920009C6B44F480149C639C6B24F478249C639C6B44F410249C639C6824F470249C607D
:209940009C689C609C6824F440149C609C689C605C6824F480645C605C6824F480545C60B3
:209960009C692140144C9961A3429969996118D0002380F844301148114B848DC18D408D6E
:20998000091BC2F80848C2F8040893FBF1F330BCC2F80C3870470B4C616841F400016160A9
:2099A000B1E708494B6843F400034B60E0E700BF9818012000F0FFFF00200140007AF01FF7
:2099C0008038010000230140704700BF01483DF0EBBF00BFBC200120084810B4D0F82438E0
:2099E000D0F8584899691A682CB1234600F624005DF8044B18475DF8044B704798180120EC
:209A000001483DF0D1BF00BF1C210120084810B4D0F88438D0F8B84899691A682CB12346F9
:209A200000F684005DF8044B18475DF8044B70479818012001483DF0B7BF00BF7C21012014
:209A4000084810B4D0F8E438D0F8184999691A682CB1234600F6E4005DF8044B18475DF8E9
:209A6000044B70479818012030B40469002341684025E46882690C3154624469956053600E
:209A800093631160C2E90333C2E90533C2E90733C2E90A33C2E90C3384B1C269E068936346
:209AA00050621160C2E90133C2E90333C2E90533C2E90733C2E90A33C2E90C3330BC704786
:209AC000114A037A0168D35C10B4CC58CA1824F00104CC501368DB07FCD4037D1F2B09D93E
:209AE000203B20225DF8044B02FA03F343F01803CB60704720225DF8044B02FA03F343F0F8
:209B000018038B60704700BF04CA0508F0B50668356A00295CD12F68AC68D6F818E0002F46
:209B20005FD0364B3B40B3F1005F61D007F01F0104F11F0327F01F02194421F01F01BFF320
:209B40004F8F00290BDD114402F12003DFF8B0C08B42CCF868221A4603F12003F8D1BFF357
:209B60004F8FBFF36F8F03684FF48062CEF80470CEF814205B69CEF8204043B36868F66984
:209B8000002837D01D4B0340B3F1005F1AD000F01F0220F01F011F32224422F01F02BFF321
:209BA0004F8F002A0ADD0A4401F12003144D9A42C5F87012194603F12003F8D1BFF34F8F08
:209BC000BFF36F8F4FF48063706073613462F0BDEC69002CFBD06F691435D6F818E0002F66
:209BE0009FD1084A3346CEF81470CEF80420C1E73346B9E7044B70617360E7E70000FFFF76
:209C000000ED00E04400002048000020F8B507680646D7E90454002C50D0A0612B7D1F2BEC
:209C200039D82022286802FA03F343F018038360237D1F2B3AD92022203B02FA03F3226808
:209C400043F01803D3606368002269680A601A601A6842F010021A60BA69297A47F052F85A
:209C6000FA69217A206847F04DF82A7A2A492F6833688D5C5A687B59206843F001037B518F
:209C8000237AC95C435843F001034350536843F003035360F8BD203B2022286802FA03F322
:209CA00043F01803C360237D1F2BC4D8202202FA03F3226843F018039360C4E72A7D6B6889
:209CC0001F2AA8611FD82021286801FA02F242F0180282600021BA691960196841F01001CD
:209CE0001960297A47F00EF82A7A0B4933682868895C5A68435843F001034350536843F0EE
:209D000002035360F8BD203A2021286801FA02F242F01802C260DDE704CA050810B1036883
:209D200082889A61704700BF18B1838802681B049361704708B51D200EF094FB08B1837964
:209D40004BB11E200EF08EFB08B1837903B108BD5523C38008BD5523C380F2E7D3B2012B4F
:209D600023D802EB42024FF0000C70B54FEA820E0F4C634622460EF1080504E00133172BAC
:209D800011D012F81CCF6045F8D192F801C08C45F4D15659002EF1D0C3EBC3030EEB83030D
:209DA0000433E01870BD002070BD0020704700BF084D050810B40C4C002304F5196C01E064
:209DC000152B0CD003EB430201331CF802108142F6D122445DF8044B92F9920970474FF02A
:209DE000FF305DF8044B704798180120D3B2022B21D802EB4202002330B54FEA820C0F4D01
:209E00000F4C2A460CF10C0E04E00133172B10D052F82C4FA042F8D114798C42F5D152F84B
:209E20000E40002CF1D02C2202FB03C30833E81830BD002030BD0020704700BFC8470508EF
:209E400000000140002838D0002330B51B4D90F804C005F5196401E0152B2CD003EB43020E
:209E60000133A15C6145F7D12A44046890F805E092F99239DAB2022A1DD803EB430310486D
:209E800010494FEA830C024600230CF10C0504E00133172B0FD052F82C1F8C42F8D1117939
:209EA0007145F5D151590029F2D02C2202FB03C30833184430BD002030BD70479818012067
:209EC000C8470508000001400348D0F890300BB180301847704700BF000001200348D0F8DD
:209EE000B4300BB1A4301847704700BF000001200348D0F8D8300BB1C8301847704700BF54
:209F0000000001200348D0F8FC300BB1EC301847704700BF000001200348D0F8203113B1EB
:209F200000F5887018477047000001200348D0F8443113B100F59A7018477047000001207B
:209F40000348D0F8683113B100F5AC7018477047000001200348D0F88C3113B100F5BE7092
:209F600018477047000001200348D0F8B03113B100F5D07018477047000001200348D0F873
:209F8000D43113B100F5E27018477047000001200348D0F8F83113B100F5F470184770470B
:209FA000000001200348D0F81C3213B100F5037018477047000001200348D0F8403213B173
:209FC00000F50C7018477047000001200348D0F8643213B100F515701847704700000120BB
:209FE0000348D0F8883213B100F51E7018477047000001200348D0F8AC3213B100F52770D5
:20A0000018477047000001200138074B074A00EBC00003EB8000D0F8800090420CBF95207A
:20A02000962043F011BF00BF000001200060024001382DE9E84100EBC000134D1E46134BA0
:20A0400005EB800590460F46D5F8800098420CBF9520962043F0F8FE95F995004FEA9811D5
:20A06000C5F89070C5F8986043F0F2FD95F99530002B07DB03F01F0001225B090449824044
:20A0800041F82320BDE8E881000001200060024000E100E0800AA0F58010522808D8054B59
:20A0A000184490F8F4330D2B02D8034AD056704700207047C8470508F4C905080120FEF786
:20A0C00091BC00BF0220FEF78DBC00BF0420FEF789BC00BF0820FEF785BC00BF1020FEF7F6
:20A0E00081BC00BF4FF47870FEF77CBC4FF47C40FEF778BC30B1036882881B691A4214BFDB
:20A1000001200020704700BF2DE9F04F884683B004461746002800F0BC8002685E4B1344CD
:20A120009B0A5E4AC8F3411B134493F8C40743F08BFEC8F38103B4F804E008F003022568F9
:20A1400001939EFAAEF0B0FA80F002F1FF3A3EFA00F35ED00126032103E001303EFA00F30C
:20A1600057D006FA00F313EA0E03F6D0D5F8009093FAA3F4B4FA84F493FAA3FCBCFA8CFCE0
:20A180006400BAF1010F4FEA4C0C01FA04F402FA0CFC29EA040444EA0C042C6049D9D5F844
:20A1A0000C9093FAA3F4B4FA84F493FAA3FCBCFA8CFC6400022A4FEA4C0C01FA04F40BFA36
:20A1C0000CFC29EA040444EA0C04EC60C5D193FAA3FCBCFA8CFC1C0ABCF1070F41DC2C6A36
:20A1E00093FAA3FCBCFA8CFC93FAA3F34FF00F09B3FA83F34FEA8C0C01309B0009FA0CFCB0
:20A2000007FA03F324EA0C0423432B623EFA00F3A7D1BAF1010F09D86B68C8F3001823EA44
:20A220000E030EFB08FE4EEA03036B6003B0BDE8F08FD5F8089093FAA3F4B4FA84F493FAE2
:20A24000A3FC6400BCFA8CFC01FA04F44FEA4C0C29EA0409019C04FA0CFC49EA0C04AC6027
:20A260009DE7D5F824C094FAA4F9B9FA89F994FAA4F30F24B3FA83F34FEA89099B0004FA6A
:20A2800009F907FA03F32CEA090C4CEA03036B6263E74FF0FF3344E70000FEBFC8470508D2
:20A2A00000B131E770472DE9F84FC04F6023064603FB0073D3F81048002C00F06B81D3F87C
:20A2C00018A8BAF1000F04D09AF80630002B40F06181602303FB0673D3F81C581DB1AB7900
:20A2E000002B40F05781731CDBB2BAF1000F04D015228AF807308AF8062015B11622EB718F
:20A30000AA714FF06009207C43F09EFD294609FB06F9504647F026FA042207EB09085046F2
:20A3200098F82038002B14BF3E211E21FFF7B8FF98F8203828469E4D002B4FF004024D44AA
:20A3400014BF3E211E21FFF7ABFF4C22002128464AF06CF8D8F810389FED967AB0EE084AAD
:20A360005B68F7EE003AB8F822984FF0000EC8F8243840F21458904B9FED905A9A68904B5C
:20A38000C2F38222134493F8CC27D7F82C33D34007EE903AF8EE677AC7EE275A07EE909A73
:20A3A0009FED887AF8EEE77AC7EE274ADFED867AB0EE007AE5EE877AA5EE875A25EE844A95
:20A3C00037EE856A74EEE72AB9F5C87F0EF1010CD5BF642332234FF49670782007EE90CA55
:20A3E000D8BF4FF4167A0344C8BF4FF4827AB8EEE77AD8BF414607EE903AC8BF4FF4FA71CD
:20A4000027EE257A01EB0A03F8EEE76A86EE873A73EE636AFCEEE67A17EE902A07EE90AABD
:20A42000B8EEE73A07EE903AF8EEE77A23EE243AC3EE276A36EEC53A72EEE66AC3EE077A99
:20A4400077EEE37AFCEEE77A17EE901AC6EE877A77EEE37AFCEEE77A17EE903A03F1020AAF
:20A460000AEB010BF0EE466A07EE90BAF8EE677AE7EE276AF4EEE64AF1EE10FA00F38E80E5
:20A480005FFA82FABAF10F0F00F28A80323807EE900AF8EEE77A77EEC47AC7EE876AFCEEAF
:20A4A000E67A17EE900A5FFA80FABAF10F0F77D81FFA81FABAF1FF0F72D81FFA83FABAF1DA
:20A4C000FF0F6DD812054AEA0E7302F07F620004134300F47F003D4A034302EA01210B4394
:20A4E000602000FB067600272846C6F828380123C6F82C78C6F83038C6F83478C6F838782E
:20A50000C6F84078C6F8447846F060FD96F86538202BD9B21AD196F86438012B16D0242349
:20A5200086F86538D6F824381A6822F001021A601A6822F480521A601A681A601A6842F031
:20A5400001021A6086F8651886F86478002194F9120043F07DFB94F91230A27C002B07DBC4
:20A5600002F01F0101225B098A40194941F82320002194F9110043F06BFB94F91130627C96
:20A58000002B07DB02F01F0101225B098A40104941F82320BDE8F88FE64615E701315FE7AA
:20A5A000BCF10F0FF8D100239AE700BF98180120BC200120286B6E4E0038024000001643B4
:20A5C000C8470508002474490000704200FFFF0000E100E02DE9F047814DC0EB001605EB41
:20A5E000C606D6F8D039002B00F0B8800446070196F8400A43F028FC96F8403A012203F0C6
:20A600001F015B09013B8A40032B0AD8DFE813F0DC000400E200D60072494B6A23EA0202BD
:20A620004A623B1B04F1010905EBC3035FFA89F993F8D4090DF016FF064618B1122380F84C
:20A64000079083713B1B05EBC30393F8D5090DF009FF824618B1132380F8079083713B1BD5
:20A6600005EBC30393F8D6090DF0FCFE804618B1142380F8079083713C1B50462E2105EBCE
:20A68000C40595F8D829FFF70BFE95F8D9290E214046FFF705FE95F8D7292E213046FFF7DF
:20A6A000FFFDD5F8D03950491A688B4222F040021A6055D04D4A934269D002F5806293429A
:20A6C00058D1484A116A41F400411162116A21F4004111625A6842F480525A601A685206B9
:20A6E00034D443491E68D1F8D442D1F8E002D1E9B025B0F5005F42EA0502D1F8CC5242EADD
:20A700000502D1F8D05242EA0502D1F8D85242EA040242EA0502D1F8DC5242EA0502354D10
:20A7200042EA000205EA060542EA05021A60D1F8C8225D6842EA14422F4C04EA050442EAAC
:20A7400004025A6002D1B1F8E4221A61DA6922F40062DA611A6842F040021A60BDE8F087BA
:20A76000204A516A41F480515162516A21F480515162AFE7214A934213D11A4A516A41F499
:20A7800000515162516A21F400515162A2E7154A116A41F480411162116A21F48041116251
:20A7A00098E7174A934295D10E4A516A41F480115162516A21F4801151628BE709490B69A6
:20A7C00023EA02020A612CE706494B6923EA02024A6126E703490B6A23EA02020A6220E7D9
:20A7E00098180120003802400030014000380040000001204000FFFFFBF0FFFF0034014068
:20A800000050014008B100227EE470472DE9F041CB781BB900263046BDE8F08100F110079B
:20A820000C460546897838460CF03EFE06460028F0D0E0780DF016FEA86123780133DBB2C2
:20A8400010B1C371222383710D21FFF7DBFFA869FFF764FA104AD2F8D432632BFBD90F4884
:20A860000CF00EFEDFF83C800D4BA88202E058F8043B53B13846984703460028F7D0286920
:20A8800085F8D83047F038F8C5E7E0781E460DF0E9FD0DF045FEBEE79818012040420F003A
:20A8A000AD4C0408A04F050870B50E4CD4F81C6F002E15DD04F58764002503E0B54204F1C9
:20A8C00020040DD0237F0135002BF7D0E06800220028F3D0217D2034FFF716FCB542F1D1A5
:20A8E000012070BDE0010020AB4B2DE9F04F91B093F8C28BA94B0025A94F0093A94BA3F674
:20A90000C40ADFF8B892DFF8B8B24E46B30AA3F58013522B55D8534493F8F4330D2B50D838
:20A92000B8F1010FFC5640F01E81012C3FD14FF00009494620460EF055FC0EF0DBFC90F817
:20A9400000C0BCF1000F18BFBCF1540F14BF4FF0010C4FF0000C40F0028109F104091FFA57
:20A9600089F9B9F1100FE4D1002D00F0BA808B4A00210DE0534493F8F4330D2B0FD8FB56E4
:20A98000A3420FD0013102F58672A94280F2A580906803689B0AA3F58013522BEAD90023BA
:20A9A000A342EFD143799BF805009842EAD17D4B5B4513D05BF81C6FB30AA3F58013522B7B
:20A9C000A9D9B8F1010FF2D001230024B8F1020FADD1002BABD0734B5B45EBD1009B013569
:20A9E00003F58673042D00938BD1DFF8D8814FF0000B08F59E77A8F5876ADAF81C3F5B455F
:20AA000068DDD8F80C60002E64D098F81030B088D6F80090DAF8045063490193B0FA80F36A
:20AA20004944002D0293C3F11F034FEA9121009340F3CD80594B002405E0013403F5867320
:20AA4000AC4200F0C1801A688A42F6D14FF48673524A03FB0424009A0BF1010B019B510035
:20AA6000C8F8042088F810300323C8F80C6003FA01F5C8F81840B371012386F807B01646FC
:20AA8000A26C03FA01F12A43A264226D0A4322659AF80020002A6BD003FA06F11A46636DA8
:20AAA0000B4389B26365C9F81800D4F8AC00FDF723FB204608F12008FDF7F2FA0123BBF1AB
:20AAC000080F07F1180708F8043C08F8033C07F8073C92D111B0BDE8F08FBCF1000F7FF410
:20AAE00066AF5846FDF7A0FA9BF80540C3B2022B00F24C83431C2D4A5BB203EB430398002B
:20AB00002B4B03F5727104E0994200F03F8353F82C2FB242F8D11A79A242F5D11A58002A37
:20AB2000F2D094460023234A51680133614513D0102B02F12402F7D14FF0FF3303EBC30332
:20AB40001D4A02EB830393F89C30002B7FF42FAF009BC3F808B041E7DBB2013BEEE7002D47
:20AB60007FF405AF23E7B4F1080318BF01232DE702990004C1F12F05009903FA01F1AB40ED
:20AB8000656D89B22B436365C9F81800D4F8AC00FDF7B2FA8DE700BF98180120E801002074
:20ABA000F4C905088C5005080000FEBF00000140C8470508800001200000012000040140C1
:20ABC000AC4F050818060020032C00F399824FF4867303FB05A31869002800F0C18299603B
:20ABE0000131CAB283F811210492542283F810216B1C0268CAF8043044790392FDF714FA07
:20AC0000A04B864693F8D93B0593C3B2022B00F2BD8200F1010C9C499C4800234FFA8CFCB8
:20AC2000039A0CEB4C0C4FEA8C0C05E00133172B00F0AC8251F82C0F9042F7D10879A0425D
:20AC4000F4D151F80C000028F0D02C210EEB4E0E002401FB03F303EB8E0E8B4B73441969A1
:20AC60004FF4867303FB05A3C3E90701884B9C46DCF80410884217D001340CF1240C102C52
:20AC8000F6D1844B93F87820002A00F06282824B82488349834AC3F84804C3F84014C3F8FC
:20ACA000502411B0BDE8F08F611C7A48C9B2013901EBC10100EB810191F89C000690002849
:20ACC000E5D104984FF08C0C81F89D004FF4867000FB05F42046542481F89C4004468110FA
:20ACE00071480394544400FB01F1C4F800C101FB0CF001EB4101C4F80C9001EB011C6B49C7
:20AD000001EB4000A1F54C7101EB8C01C4F8FC00C4F8B4103321C4F8B8106549039C0C19B9
:20AD20005849D1F82C930599062900F00E82072960486149DFF888E10CBF84468C465F49CC
:20AD400008BF714610460593039BB9FBF1F1B9FBFCFC4A1E4FF486790CF1FF3192B209FB88
:20AD600005A9A9F8BC1003F15801A9F87420504B226600221944A4F858206266E26545F03C
:20AD800059FED9F8103018680493026842F0800202605A79059B0C2A08D8DFE802F06B0700
:20ADA0000707640707075C07070754004FF4867202FB05A251694FF0600C02684FF0000951
:20ADC0004FF0020ECDF820C04FF4807C22F00102CDF82890CDF838C04FF0010CCDF834901C
:20ADE000CDF824C04FF00A0CCDF83C900593CDE90BCE026008AA45F0DBFC4FF48672049BA3
:20AE000002FB05A219685269059B012A5AD0042A58D0102A00F0A981402A53D0B2F5807F80
:20AE200000F0A681B2F5806F00F0A281B2F5805F00F0A481B2F5803F4FF03C090CBF0822D8
:20AE40004FF400623FE04FF486724FF4805102FB05A25161AFE74FF486724FF4807102FB87
:20AE600005A25161A7E74FF48672102102FB05A25161A0E74FF48672012102FB05A25161EF
:20AE800099E700BF98180120C8470508000001408000012000000120D8120020F556010825
:20AEA000F1560108FD5601086B4CA407681A0020E80100201055220044950800D0DD0600BE
:20AEC00040771B00082201F1180050F809C042EA0C0240F80920049A1079002840F01C81A4
:20AEE0004FF48671002201FB05A1D1F810C0C869DCF800C0DCF8001041F00101CCF800100B
:20AF000059680132884200F00381102A03F12403F6D14FF0FF339F4A03EBC30302EB830362
:20AF2000D3F880009C4B98420CBF9520962042F08BFF4FF4867303FB05A31A6953790C2BAB
:20AF400000F2E380954901EB4303B3F8E0C84FF486731068924903FB05A3A3F818C000236E
:20AF600006E0904200F008810133042B00F00B8151F83320002AF4D1DAF8202F0132CAF820
:20AF8000202F0AEBC302DB00C2F8240F1944069823469022B1F804E0DFF818924CEA0E0C6C
:20AFA000A1F804C07F49FFF743F84FF486734FF4403C402103FB05A50023E869026842F027
:20AFC00010020260026842F014020260C4F8A830C4E91F33C4E9283304232A6AC4F898C07F
:20AFE0004FF4804CC4F89C304FF48063A167C4F88430C4F89420D5F8B820C4F89020C2B227
:20B0000020F0FF00103AA9FB0231EA68039B1832090922674FF48052C4F8882003F170024C
:20B02000614B1A44D5F8B430C4F88CC0636745F069FEE869039B4FF40031D0F800E04FF499
:20B04000006C03F1B802584BC4F820E0D0F814E01A440023C4F824E0D0F804E0C4F828E00A
:20B06000D0F808E0C4F82CE0D0F80CE0C4F8C830C4F830E0C4F8F030C4E93033C4E93A331E
:20B080002B6A03930423C4F8E4304FF48063C4F8CC30039BC4E93731D5F80031C4F8D8303B
:20B0A000C3B220F0FF00103BA9FB0331EB68C4F8D0C010330909C4F8B830D5F8FC300393C2
:20B0C0004FF48043C4F8D430039BC4F8BC3045F019FEEB69B0881A68D6F8009062635A6924
:20B0E000A2635A68E2639A682264DA6862641A6842F010021A601A6842F014021A60AAE4A2
:20B1000003232A4A82F8D83BC1E54FF0000C1EE7D3B20693013BFEE6079305910DF0A2F90C
:20B1200005998146079B58B105930221049BDA79FEF7EAFF049B5422A9F806201968059B77
:20B140004A6C42F400424A64CAE6DFF86CC01849F8E50499542283F8791083F8782096E57D
:20B160000223124A82F8D83B91E54FF40062AAE608224FF00409A6E6DB0007E74FF40062A6
:20B180004FF004099FE600239B88FFDE00235B68FFDE00BF0000012000600240C84705085A
:20B1A0000411002045810008E801002098180120A0BB0D00ABAAAAAA882A1100F8B590F8A9
:20B1C000B2311C09013C052C0FD81B4E054603F00F0306EB4402B2F8FC0840FA03F2D2076C
:20B1E00003D595F8BD71012F01D00120F8BD07FA03F33444013B184047F07EFB94F8082975
:20B2000013180E4A02EBC30152F833208B8810691840EBD0002395F8B3210846022185F84C
:20B22000BD31FEF771FFD5F820213846136843F008031360F8BD00BFC847050874240120BA
:20B240002DE9F04F00228DB02F2107460EF0AAF8D0B19B4E05464379D0F80080A6F83C3436
:20B26000FEF7F0FD80B1446874B1DFF88CB2002259464B68013224319C4210D0102AF8D118
:20B28000904B93F878201AB100200DB0BDE8F08F2F21104683F8792083F87810F5E7D2B2C7
:20B2A000DFF820A2013A02EBC2020AEB820292F89C90B9F1000FE7D12F218368C6F8FC83F1
:20B2C000A2F89C10D6F82C237F4901938A4280F0D8804946120AC6F800147C490020A1FB1D
:20B2E00002317B4BC6F80C040A09C6F804040909A3FB0232C6F808145208A6F8DE2E52009A
:20B30000A6F8DC2E96F8392402F0FF01002A00F0C480022240466F4986F839243CF09EFE45
:20B320000122384686F839240DF09CF8C6F8E00E28B12F21C1804E21EA79FEF7E5FE664A90
:20B340000021019BC6F8F01EC6F8E83EC6F8001FC6F8081FC6F8101FC6F8141F106BC6F8A7
:20B36000E44E40F400101063106B00F4001003900398106B40F480001063126B02F48002A0
:20B380000492049A4022C6F8EC2E4FF48062C6F8F42E4FF48052C6F8F82E4FF48042C6F87E
:20B3A000FC2E4FF40032C6F8042F0322C6F80C2F96F83C240C2A73D8484901EB4202B2F805
:20B3C0001079B846083746485946002206EB870CCCF8FC03A0F6E820C6F81C0F48680132A7
:20B3E0002431844262D0102AF8D14FF0FF3202EBC2020AEB820A3B4ADAF8800090420CBFE7
:20B400009520962042F020FD0022DBF8041001320BF1240B8C4246D0102AF6D106EB8707A7
:20B420004846434660223049FEF702FED7F8FC033BF0C4FF00287FF427AF60210A90AB7999
:20B44000059159000B90DB00069001F00201099003F00803B6F83C242448CDE9071305A96E
:20B4600042F0CEF800287FF40FAFAB79B6F83C149B071E481DD53CF07DFEB0FA80F0400955
:20B4800003E71B491B481144A0FB0131890D013989B2481CB2FBF0F21CE786F8381438E7EF
:20B4A00088460F468EE75FFA82F9B7E7D2B2013A9DE73CF0A3FDB0FA80F04009E5E600BF86
:20B4C0009818012000000120006CDC02598B4F01ABAAAAAA981C012000380240C8470508E8
:20B4E0007C2701200060024009900008941C012000366E01819F5E1680000120014B53F803
:20B500002000704750280040014B43F820107047502800401D4B1E48196C1E4A41F08051B9
:20B5200030B4196482B0196CFF2401F0805101910199016841F480710160CA20196C41F44E
:20B5400080611964196C01F4806100915321009D5462506251625B6FDB000DD40E4B002175
:20B560000E4A43F8041B9342FBD10D4B0D4AC3F8502802B030BC7047094A0A4BD2F8502857
:20B580009A42EBD102B030BC704700BF003802400070004000280040542800406C280040DD
:20B5A00000200040316665422DE9F0470646086888B00C464FEA902CBDF84080ACF5801CB3
:20B5C0009DF84490BCF1520F64D8374FBC449CF8F4530D2D5ED81946FDF754FD334A23683B
:20B5E000617902EB851A94F806E0B9F1000F54D1F4469B0AA3F58013522B23D83B4493F809
:20B60000F4030D281ED84FEA4C034FF480774FEACC0CCDF8088003F0020302EB80100A4623
:20B6200001A903930CF008030493602301934FF40073CDE906730023059341F0E1FF61798A
:20B6400094F806E01EF0020F504629D03CF092FD174BA801022203EB8515D5F8401485F8BA
:20B660007D24144A8D682A40062A06D0B2F5803F03D00A6842F001020A600344012283F837
:20B680007D242168637901F1340271600021D0183060D15008B0BDE8F0878EF0010CA8E703
:20B6A0003CF0ACFCD4E700BFC8470508D81C01209818012007000100F0B50446D0F89400E7
:20B6C000434B83B0A16804F1640204F118070E68C1B220F0FF0001921039A3FB013109097B
:20B6E00045F05AFB616D0023019A012984F8583018D0042916D0102955D0402912D0B1F5BC
:20B70000807F53D0B1F5806F50D0B1F5805F55D0B1F5803F4FF03C030CBF6FF0080C6FF424
:20B72000006C01E06FF0080C06F118053046E95801EA0C01E950616D45F03AF8636D012B1C
:20B7400016D0042B14D0102B0FD0402B10D0B3F5807F2FD0B3F5806F2CD0B3F5805F31D0CA
:20B76000B3F5803F06F1540502D04FF4006100E008212B683A46D4F894000B4340212B60E6
:20B780002162C1B2124B20F0FF001039A3FB0131090945F0B7FAD4F89420136843F01003F5
:20B7A000136003B0F0BD6FF4006CBDE76FF0080C0423B9E706F11C050821DAE76FF4006C38
:20B7C0000423B1E706F11C054FF40061D1E700BFABAAAAAA2DE9F04FDFF85CB29BF80040C1
:20B7E0002DED028B87B034B90124204607B0BDEC028BBDE8F08F8B4BDFF840A2D3F8D43282
:20B8000008EE103A0DF084F99AF8243C0390002B00F001810BF234670BF634330BF63C44CB
:20B8200000263D4601930597DAF81C34039AD31A03D4EA6D9A4200F3D08006EB86030BEBC6
:20B84000431393F88C3603F0FF020292002B00F08D80D5F89410AB6873481A68CBB221F046
:20B86000FF01103BA0FB030370481B09C35C19444B68A9891FFA83FCD368CCF1160C23EAE0
:20B880000103BCF1070FD36070D9DBF83C3B00220121013396468946CBF83C3BD5F89C3025
:20B8A0001F46049357F8048B40461CE0D7F80080BEF1140FA8EB000340461CDC13F10808E3
:20B8C00048BF03F117084FEA28130EEB281E03F1FF38013102FA03F3043709FA08F28C4543
:20B8E00042EA030207D38C45E0D8CEF1150338684FF0150EEBE7BEF1150F65D14C49C2F3B6
:20B900008423C2F3441001EB830301EB8000D3F82C39D0F82C091B0243EA001302F01F00FE
:20B92000C2F3C43201EB800001EB8202D0F82C19D2F82C290B4343EA023383EA132282EA96
:20B94000121202F00F020F2A3ED1C3F30F134FF6FF72934238D0B3F5606F45D0019A9381D2
:20B96000029918EE102A20460BF030FD019B284601365C341433A0350193FFF79DFE9AF8BA
:20B98000243CB3423FF750AF0122059F8BF8382C0022CAF81C24002B3FF426AF03EB8303A4
:20B9A00007EB43133A7CA03757F84C0C12F0020F57F8982C11680A6A14BF42EA8002024332
:20B9C000BB420A62EED10FE7DBF8383B0133CBF8383BCEB100230293C2E70024204607B078
:20B9E000BDEC028BBDE8F08F0E4991F8EC2302EB420201EBC202324492F899230D2AADD1AC
:20BA00008023019A9377ABE704995822094848F099FC0296A4E70122CAF81C348BF8382CD8
:20BA2000E3E600BF98180120ABAAAAAA04CA0508C8470508C00D0020E0010020D812002015
:20BA4000D0F82011242200232DE9F041C0F8942104460A68806804F5907522F001020A60AF
:20BA60000B604B608B6094F805C0C4F89C314FEA8C22C4F8943184F8903102F48052C4F8C2
:20BA80009831C4F83831C4F828214FEA0C32C4F8403102F40052C4F834312379C4F82C2101
:20BAA0004FEA0C22C4F8240113F0010002F48062C4F8302102D00422C4F8342113F0020344
:20BAC00005D0D4F8342142F00802C4F834211CF0010F0DD048B1D4F8442142F00202C4F80E
:20BAE00044214FF48032C4F84C21002B40F0FF80A84B03F1200053F8042F944200F0BD8061
:20BB00009842F8D11CF0080F40F0CD80D4F89431002B00F0168124232846C4F894310B68F6
:20BB200023F001030B603CF049FB012815D0D4F84431002B40F01881D4F8203128465A6883
:20BB400022F490425A609A6822F02A029A601A6842F001021A6045F00DFA2379DA0761D5E9
:20BB6000D4F8FC20002A00F0D9800023D4F8041104F13C06E263A3644FF480623046E26402
:20BB8000C4E91013C4E91433C4E91833C4E91A334FF48033E3654FF48073A36545F064FAE0
:20BBA00030463BF00BFCD4F89881C4F88C61B8F1200F656731D1E368626999B26AB3B1FA80
:20BBC00081F77F0949B394F89001012825D030460126C4F89C710B4684F890612226A4F826
:20BBE0007811C4F898616C4ED4F82011A6676B4E2431C4F87421E667694EC4F88C70C4F86C
:20BC000088603BF079FC002800F0B280102384F89071C4F89C31C4F89481E26B23795268A5
:20BC2000C4F814219B0777D5D4F80021002A69D00023D4F8081104F19C06C4F89C20C4F802
:20BC4000A8304022C4F8B8303046C4E92C33C4E93033C4E932334FF48033C4F8BC304FF481
:20BC60008063C4E92812C4F8AC3045F0FDF930463BF0A4FB002867D0FEE7002C3FF442AF63
:20BC800094F8BC31002B3FF43DAFD4F844311CF0080F43F00803C4F844314FF40043C4F8CC
:20BCA00054313FF433AFD4F89431002B55D024232846C4F894310B6823F001030B603CF0B2
:20BCC0007DFA01283FF449AFD4F84431002B47D1D4F8203128465A6822F490425A609A6824
:20BCE00022F022029A609A6842F008022EE7D4F8443143F00103C4F844314FF40033C4F8E6
:20BD00004831F5E6D4F8A0311A6842F080021A601A6842F040021A60BDE8F081D4F8A0216F
:20BD2000116841F480711160916841F001019160116841F020011160116841F0100111606E
:20BD400070E784F89031E6E6D4F89C30C4F88861C4F8D4505860BDE8F08184F89031A6E7CE
:20BD600028463CF0E5FBB3E728463CF0E1FBE3E6D4F8203184F890011A6842F480721A6022
:20BD80009A6842F001029A609A6842F040029A6043E700BF001F00202533040855330408E2
:20BDA00059330408F8B5EFF31185502383F31288D0F800311B6813F0010303D0EDB285F3D6
:20BDC0001188F8BDD0F894210446D0F898110A4302F02102212AF1D0D0E90901884253D0BF
:20BDE00043D822691846531A9BB2D4F894710022A062202F84F8A421E0D1A2695118DDD02E
:20BE0000B3FA83F67609002BD8D094F89021012AD4D00122D4F88801A4F8723184F89021BA
:20BE20002122C4F89C61C4F86C11A4F87031C4F89421E8B1DFF858C0D4F82021C0F83CC0D6
:20BE4000DFF850C028320665C0F840C0DFF848C0C0F84CC03BF050FB50B1102384F89061C4
:20BE6000C4F89C31C4F89471A8E7431A9BB2BCE7D4F8203100224021196284F890219A6852
:20BE800042F080029A6099E7012384F8A43195E7FD320408213304085933040870B5D0F863
:20BEA00020410546E369990614D5606AEB6AC0B2002B74D0296B9847D5F82041236823F4BF
:20BEC00080732360A36823F00103A360A36943F00803A361E369DA0701D501232362E36981
:20BEE0009B0701D502232362E3695E0701D504232362E369180701D508232362E369590651
:20BF000014D54023236295F8BD61002E31D0D5F80031CBB12846FFF745FF95F8A4311BB126
:20BF200095F8BD61002E4BD0D5F82041D5F8003163B1E369DB0606D56B6B13B19847D5F87F
:20BF400020411023236270BDD5F82041E3691A06EFD5D5E9092393422DD0AA69D25C01330C
:20BF6000D2B2A2622A69B3FBF2F102FB1133AB62DFE795F8B2010CF075FA236823F00803AD
:20BF80002360012385F8BD310028C0D032462021FEF7BAF8D5F80031002BBBD1D4E7EB69B3
:20BFA0006A69D054EB69EA680133B3FBF2F102FB1133EB6180E7236823F080032360B8E7E8
:20BFC00095F8B2010CF04EFAD5F820410122236823F00803236085F8BD210028A6D03246EF
:20BFE0002021FEF791F89FE72DE9F04FAF4C83B004EB8004D4F82C4C002C6BD0D4F8AC5192
:20C000001F46DFF8C4B290466B680646A84AC4F8A0316B6BDFF8B49263612B6BA160A361A8
:20C020006B8FE3602B8FC4F8A82123610BF6AC1323602A7809EB420393F9440F530001931C
:20C04000C3B2012B40F28680D4F8003183B1994900209C464B68013024319C4500F0F68072
:20C060001028F7D1944B93F87810002900F05381D4F8FC00002840F0C2806B68C4F820319F
:20C0800095F82800002840F0D28094F8B2010CF0E9F902213A07034694F8B09184F8BD1160
:20C0A0001CD558B317F0510F4FF00B0206F1010614BF0A211A2117F0410FC671827114BF46
:20C0C0004023202394F8B3211943FEF71DF8D4F8FC3043B3204603B0BDE8F08F18F0020FB0
:20C0E0000CD058B10B223B06827106F10102C27100F1188194F8B321FEF706F848460CF066
:20C10000B1F90028E3D018F0010FE0D00C2201360221C671827194F8B121FDF7F5FFD4F80E
:20C12000FC30002BD6D195F82C1095F92A00890941F08EFD95F92A3095F82A20002BC9DBA4
:20C1400002F01F0201215B095C4801FA02F240F82320BFE708234FF00C0A0BF5A86C1AFBE9
:20C16000003A0023E64619460131172962D01EF81C3F042BF8D19EF801309342F4D15EF813
:20C180000A30002BF0D08E460199C4F800318944CEEBCE0199F945EF890000EB4009BEF198
:20C1A000FF3F01EB89015944D1F84C15C4F808113FF44DAF0021013117293FF447AF1CF830
:20C1C0001CEFBEF1050FF6D19CF801E09645F2D15CF80AE0BEF1000FEDD0C1EBC101C4F8D4
:20C1E000FCE000EB4000890001EB80008344DBF84C15C4F80411002B7FF429AF70462D4AD4
:20C200000023516801332432814261D0102BF8D1294B93F87820002A7FF42FAF2A780132D9
:20C2200083F879200C2283F878206B6826E741F00BFE2AE7019B9944D4F8003199F9451F12
:20C240000131B7D1002B7FF402AF11E75FFA80F9194B013209F1FF31D2B201EBC10103EB2A
:20C26000810393F89C1000297FF402AF83F89D201348D3F8802082420CBF952096200B2291
:20C2800083F89C2041F0E0FD2346484695F82B200C49FDF7CDFE6B68D4F8FC002833C4F8C4
:20C2A000183100283FF4E9AEA9E700BFD8120020BDB10008800001200000012000E100E0F1
:20C2C000006002407D900008C847050898180120DBB2184A013B03EBC30302EB83032A78C6
:20C2E00093F89C100132D2B200297FF4C6AED3F8800083F89D20104A90420CBF952096205B
:20C300000C2283F89C2041F09FFD6B6803F12402C4F81C21B2E6013283F879200B2283F87E
:20C320007820A5E60123204684F8BD31FEF746FFE4E600BF0000012000600240BFF34F8FD0
:20C340000549064BCA6802F4E0621343CB60BFF34F8F00BFFDE700BF00ED00E00400FA0591
:20C3600008B572B6FFF7EAFF30B583B0FFF7D2F80320FFF7C3F801284BD0324C0025324AEA
:20C380000523C4F89850C4F89C50C4F8A020C4F89430BFF34F8FBFF36F8F4FF6FF01E2685E
:20C3A0002A4B0A4013432A4AE360536F3BF08CFB284B2949A3FB0023D4F8FC209B0C42F0D6
:20C3C0008072C4F8FC20C1F8F433D1F82C332349234AA1FB031323499B09C2F8B01F5560B2
:20C3E000013B1168B3F1807F41F00101116008D24FF0E022F0215361072384F82310956192
:20C4000013614FF0E022136943F00403136103B030BD02210320FFF777F80D4B12485A6C7A
:20C42000124942F480425A645B6C03F480430193019A02680B68026083F308884B68984764
:20C44000FEE700BF00ED00E01B0000060005FA050038024083DE1B4398180120D34D6210AA
:20C46000001000E055CEACC5003801400000F01F800AA0F5801052281CD80F4B184490F855
:20C48000F4330D2B16D8013910B40C4C04EB831CD4F82C438BB2DCF840040CF24441CCF894
:20C4A0004C34B4FBF2F2013A5DF8044BCCF844243BF0D4BD704700BFC8470508981801203F
:20C4C00070B504460068830AA3F58013522B05D82E4E334493F8F4530D2D00D970BDFCF77B
:20C4E000D1FD2B4BA801022203EB8515D5F8401485F87D24274A8D682A40062A06D0B2F5E7
:20C50000803F03D00A6842F001020A60034401202168214A83F87D040023204801E050F86C
:20C52000332091420AD001330E2BF8D10121002041F08EFB1A4B01221A6070BD06EBC303E3
:20C54000012193F9E14993F8E169204641F080FB002CC3DB06F01F0301216409104D01FA53
:20C5600003F31B2E45F8243008D02E2EB6D12C2041F06EFB4FF480536B6070BD192041F0D2
:20C5800067FB4FF000732B6070BD00BFC8470508981801200700010000000140A4510508D8
:20C5A00000E100E003689B0AA3F58013522B56D870B53B4C234493F8F4C3BCF10D0F4DD891
:20C5C0004079850800294ED00CEB8C034FF0020E840834480CEB43030EFA04F42B4400EB5A
:20C5E0008C15D5F8405400EB830EEE68CEF804103443CEF81420EC604FEA8C14EFF3118E76
:20C60000502383F312882C2303FB0CF3C258C11832B3131D4A622C22234D02FB0CF2154485
:20C620001432024452F8041B19B1196052F8043C04339542F6D100225FFA8EFE1A608EF361
:20C6400011882C2303FB0C0C2044DCF82430D0F8402403B3D36843F00103D36070BD7047E5
:20C6600024330344D7E70CEB8C030E482C460CEB43032B4400EB8C15D5F840640225A5405B
:20C68000F46824EA0504F46000EB8304616062614FEA8C14B2E7D36823F00103D36070BDB9
:20C6A000C847050898180120BC18012003689B0AA3F58013522B00D97047144A134493F810
:20C6C000F4330D2BF8D810B4114C79B94179022204EB83105DF8044B21FA02F3D0F84014A8
:20C6E0009A40CB6823EA0203CB6070474179022204EB83105DF8044B21FA02F3D0F8401409
:20C7000002FA03F3CA681343CB607047C84705089818012003689B0AA3F58013522B10D830
:20C72000084A134493F8F4230D2A0AD8407902230549D84001EB82128340D2F84024DB43C2
:20C7400013617047C84705089818012001490248FCF766B9981801200000014010B5064CF2
:20C7600006482146FCF75CF904F5C6710448BDE81040FCF755B900BF981801200000014079
:20C780000044014002494FF08040FCF749B900BFC418012001490248FCF742B9F01801206E
:20C7A0000004004001490248FCF73AB91C1901200008004001490248FCF732B94819012029
:20C7C000000C00402DE9F843194E3569F3681D4010D04FF00047DFF85C80B5FA85F227FA9F
:20C7E00002F31F2A6FEA030305EA0305336103D0002DF2D1BDE8F883D8F80431A3B103F1E1
:20C80000FF3900231FFA89F9C8F80431D8F80041002CEDD023682046494698476468002CDC
:20C82000F8D1002DD9D1E5E7F16A1FFA81F9EDE7001000409818012001490248FCF7F0B87A
:20C84000CC1901200004014010B5064C064804F59A71FCF7E5F804F504710448BDE81040A5
:20C86000FCF7DEB89818012000040140001C004001490248FCF7D4B8F819012000400140F7
:20C8800001490248FCF7CCB8501A01200048014001490248FCF7C4B87C1A01200018004067
:20C8A0002DE9F0414FF425728EB00021664847F0BDFD664B664E4FF080415A6C06F68805A5
:20C8C000374642F00102DFF89081A6F18C045A645A6C02F001020092009A1A6C42F0010237
:20C8E0001A641A6C02F001020192019A1A6C42F002021A641A6C02F002020292029A1A6CA5
:20C9000042F004021A641A6C02F004020392039A1A6C42F008021A641A6C02F00802049259
:20C92000049A1A6C42F010021A641A6C02F010020592059A1A6C42F020021A641A6C02F081
:20C9400020020692069A5A6C42F002025A645A6C02F002020792079A5A6C42F480325A6461
:20C960005A6C02F480320892089A5A6C42F400325A645A6C02F400320992099A5A6C42F4F9
:20C9800080225A645A6C02F480220A920A9A1A6C42F040021A641A6C02F040020B920B9A25
:20C9A0001A6C42F080021A641A6C02F080020C920C9A1A6C42F480721A641B6C03F48073E4
:20C9C0000D930D9B4246002301E054F8332091420BD001330E2BF8D11C37002041F034FA2E
:20C9E000AF420CD057F81C1CECE71A4A1C3702EBC30393F8E00941F027FAAF42F2D14FF0ED
:20CA00008041154F154C3A46002301E054F8332091420BD001330E2BF8D11C36002041F0E6
:20CA200013FAAE420CD056F81C1CECE7094A1C3602EBC30393F8E00941F006FAAE42F2D114
:20CA40000EB0BDE8F08100BF981801200038024030520508C847050800000140A45105080A
:20CA6000800AA0F5801052280ED8084B184490F8F4230D2A08D8064B03EB8213D3F840243F
:20CA8000136843F001031360704700BFC847050898180120F0B5A24CA5B0E368022B00F0BE
:20CAA0003A82A048A04AA149121A47F04BFCA048A04AA149121A47F045FCA368012B00F2CB
:20CAC000C28003EB43039D4A9D4D02EB430032F8132041888388C5E9BA21C5F8F032994C61
:20CAE000994E9A4BB2FBF1F2994901FB02F20021C6F82C23D4F8882042F47002C4F888205A
:20CB00001A6842F001021A609960924A1868024091481A60C0F30807904A5A601A6822F40C
:20CB200080221A60D96007B1FEE78D49A0604FF6FF000A688B4B42F400720A60E268024003
:20CB40001343E36042F0D6FABFF34F8FBFF36F8FC4F85072BFF34F8FBFF36F8F636943F439
:20CB600000336361BFF34F8FBFF36F8FC4F88470BFF34F8FD4F8803043F6E07CC3F3C90EA0
:20CB8000C3F34E33580100EA0C01734641EA8372013B5F1CC4F86022F8D1203810F1200FEF
:20CBA000F1D1BFF34F8F636943F480336361BFF34F8FBFF36F8F6A49644B0A6842F480726D
:20CBC0000A60196C684A41F080511964196C01F0805102910299116841F4404111601268A6
:20CBE000D5F8E80202F44042D5F8EC42D5F8F0120192019A9A6802F00C02042A00F08D80E1
:20CC00009A6802F00C02082A00F083804F4A136843F480331360D6F85C7F04E0D6F85C3F86
:20CC2000DB1B642B74D813689B03F7D5474A936803F00C03082B6BD0136823F0807313604E
:20CC4000D6F85C7F08E03E4DD5E9BA2147E7D6F85C3FDB1B022B5BD813689B01F7D40B063F
:20CC6000640843EA8013611E43EA01433F491943364B5160116841F080711160D6F85C1F2D
:20CC800004E0D6F85C2F521A022A41D81A689201F7D5196C344A41F0805119641B6C03F0C9
:20CCA00080530393039B136843F480331360D6F85C1F06E0D6F85C3F5B1AB3F57A7F00F2F5
:20CCC000CB805368DF03F5D51368274943F400331360D6F85C2F06E0D6F85C3F9B1AB3F5D5
:20CCE0007A7F00F2B9804B689C03F5D54FF400124FF0006304A804924FF4C0722193072368
:20CD0000CDE9082303230A933AF012FF80B3FEE7FEE75B685A027FF579AF0C4B1B6885E736
:20CD20005028004000000000283E00000857060800000020E00100209DB806089C5A0508E1
:20CD40000000012000ED00E0981801200038024040420F00FFFFF6FE0000000810300024AB
:20CD6000003C02400003FA0500700040080040206C4A136803F00F03062B0AD8136823F044
:20CD80000F0343F007031360136803F00F03072B63D1654B9A6842F4E0529A609A6842F49F
:20CDA00060429A609A6822F0F0029A601A68900153D59A6841F2883122F0030242F0020261
:20CDC0009A60D6F85C0F04E0D6F85C2F121A8A4243D89A6802F00C02082AF5D1514A1368C0
:20CDE00019070AD5136823F00F0343F007031360136803F00F03072B2FD14B4C4B4FA368F6
:20CE000023F4E05343F4A053A360A36823F4604343F40043A3603AF057FEA368C3F3031303
:20CE20003B4493F8E831D840C6F82C0342F062F9002304A8CDE91333CDE91533CDE9173374
:20CE4000CDE91933CDE91B33CDE91D33384B04933AF06EFE10B1FEE7FEE7FEE702234FF042
:20CE6000007204A8CDE90633D823CDE9042301230B933AF05DFE00B1FEE7D4F88C3023F055
:20CE80008073C4F88C30D4F88C3043F08073C4F88C30A36803F00C03042B36D0082B18D0A4
:20CEA000244BC6F82C33204AD5E9BA31B3FBF1F39168D6F82C23C1F303110F4497F8E81188
:20CEC000CA401D4901FB03F3C6F82C23934220D0FEE76368626813F4800F636802F03F0210
:20CEE00018BF1649C3F3881308BF1249B1FBF2F202FB03F30C4A5268C2F301420132520079
:20CF0000B3FBF2F3C6F82C33CDE70C4BC6F82C33C9E725B0F0BD00210320FEF7F5FAFFF7E9
:20CF20000DFA00BF003C024000380240C0580508C0FF03000024F40040420F0000127A0017
:20CF40000548D0F8A03223B1DB6A13B100F5287018470248704700BF98180120B85A050871
:20CF600010B5174CD4F8603F1B883BB9002384F86C3F84F89832C4F8943210BDD4F8642F49
:20CF8000002AF3DD012A08D0D4F8683F59880123A4F86E1F84F8703FE8E7D4F8681F8A8894
:20CFA00049880132521A9A42F1D10022D4F8A03204F528701B69C4F8CC229847D6E700BF89
:20CFC000981801200748D0F89C3213B190F8703F0BB100207047D0F8A03200F528705B6823
:20CFE000184700BF98180120174B10B4174C93F898222244C0E9002493F8980293F86C2FF6
:20D00000824217D893F89802824206D300235DF8044B1846C1E90033704793F89832002A63
:20D020005DF8044BC3F180030CBF012002204A600B60704793F8984200230120121B5DF810
:20D04000044BC1E90023704798180120241F00200F4B93F8982293F86C0F93F8982290420D
:20D0600093F898220FD8904204D3D3F8943200201844704793F89822D3F89432C2F180020C
:20D08000104418447047801AD3F89432184470479818012010B51B4C84B01B4B94F898220E
:20D0A0000393134494F86C1F029394F89832994294F8983214D899420AD294F898320191C5
:20D0C000C3F180030093C9B901223F2B0ED868B994F89802401AB0FA80F0400904B010BD0C
:20D0E0000022CB1A019201220093EEE76946002302A844F025FE94F86C1FE9E70B440222DE
:20D10000E3E700BF98180120241F00202DE9F043164685B000293CD0451E284CDFF8A48071
:20D120004FF000096F180DE094F8983208468B4294F898321DD9C3F1800318443F281BD889
:20D14000AF4226D094F86C0F15F8013F411C4044C9B280F84C3C0B0684F86C1FE4D5002047
:20D1600094F8983284F86C9F01468B4294F89832E1D8C01A3F28E3D994F898328B42DFD0E0
:20D180000F4B1B78002BDBD00020FFF783FFAF42D8D1694602A8FFF727FFDDE900321344D6
:20D1A0003F2B00D910B905B0BDE8F0830246334602A844F0C5FD05B0BDE8F0839818012097
:20D1C00000000120D812002030B585B0694602A8FFF70AFF58B9094C04F52875D4F8A03218
:20D1E00028465B6898470028F8D005B030BD0246012302A844F0A4FDEDE700BF981801203E
:20D2000070B5114C16460A4682B0D4F89C3281190546994294F86C1F88BF1E1A94F8983268
:20D22000994203D00192FFF7CFFF019A002033462946C4F8CC02D4F8A002846A0348A4462B
:20D2400002B0BDE87040604798180120381B01208C461346014662461846D1E738B5244C4E
:20D26000002204F674701346C4F89C2202461178063202292BD00133062BF8D10022D4F890
:20D28000A032C4F8682FF3B1DA6AE2B119489047D4F8683FC4F8600FA3B159889A88436816
:20D2A000521A02FB0333C4F89C32FBF7BBF894F89832054694F86C2F9A4201D0FFF784FFB2
:20D2C000C4F8945238BD0C4BC4F8603F38BD03EB4303D4F8A02200EB4303C4F8683F12B1F7
:20D2E000D26A002AD2D1044A1046C4F8602FD4E798180120381B0120B85A050810B50A4CFC
:20D30000D4F8A0325B6A13B104F528709847D4F89432D4F8602F013B528813445242134035
:20D32000C4F8943210BD00BF981801202DE9F043384E93B0FFF714FEFFF790FF96F8983217
:20D3400096F86C2F9A4201D0FFF73EFF0025D6F89C72C6F8945297B16C46DFF8BC802A46A2
:20D3600041462046203501F033FD204644F098FD012201462046FFF7C9FEAF42EFD896F848
:20D38000983296F86C2F9A4201D0FFF71DFFD6F8603F9B7B012B36D096F8983296F86C2FA5
:20D3A0009A4201D0FFF710FF0020C6F894026FB380466C46DFF86090054601E0AF421CD9D4
:20D3C0002A46494609A801F003FD21220021204647F02CF8202221462846FFF711FF202228
:20D3E000064609A92046203547F04DF908B9202EE4D0AF4208F10108E2D8B8FA88F0400914
:20D4000013B0BDE8F083FFF779FFC5E7012013B0BDE8F0839818012074C905080A4B93F820
:20D42000F40218B9094B93F8980F7047084AD1680329F7D105494FF0010C81F898CF0021CE
:20D44000D16083F8F41270470000012098180120502800400321044608B50846FEF754F8FF
:20D4600072B61049D1F8A00FD1F8A43F50EA03020AD1002211460420FEF746F811460520A1
:20D48000FEF742F8FEF75AFFD1F8D42221B24EF66024121804FB01F143F100038A1843EB93
:20D4A000E171E8E7981801200021032008B5FEF72BF872B6FEF742FF184CD4F8A82F94F870
:20D4C000AE0F08B54AB11168938809690B40F8B9003B18BF0123002BF4D114200BF014FD6F
:20D4E00000BFD4F8A83F63B1196894F8AE2F9B8809690B4042B9003B18BF01230BB1FFF7F9
:20D50000D3FFFAF7C1FFEBE7B3FA83F35B09F5E7B3FA83F35B09002BD4D1DEE79818012066
:20D52000F8B51C200AF09EFF04461121FDF76AF97CB3A388C82022681B0493610BF0E4FCDE
:20D540002046FCF7EBFB1B200AF08CFF08B12923C3802923E380284CD4F83C3213B1002340
:20D56000C4F83C320023254E0125254FC4F8386287F8B03F84F8245241F008FF06F11C034D
:20D58000C4F83C321F4B93F86931AB420FD02846F8BDC8200BF0B8FC2046FCF7BFFB1B20FE
:20D5A0000AF060FF0028D6D02923C380D3E7D4F85802543690F8BC33C4F85462AB4214D091
:20D5C0000168D1F8043823F00203C1F80438D7F85C2FD7F85C3F9B1A032BFAD98B68002241
:20D5E00043F001038B6080F8BC230023064A184682F82330F8BD00BF98280120F8020120A4
:20D60000981801209029012000ED00E02DE9F04F00218BB041F69462BD4846F007FF04204F
:20D62000FDF76CFF01460520FDF768FF51EA000340F05E81B74B03934C220021B44801242F
